{
  "_format": "hh-sol-artifact-1",
  "contractName": "Donation",
  "sourceName": "contracts/Donation.sol",
  "abi": [
    {
      "inputs": [],
      "name": "donate",
      "outputs": [],
      "stateMutability": "payable",
      "type": "function"
    },
    {
      "inputs": [],
      "name": "lastDonation",
      "outputs": [
        {
          "internalType": "uint256",
          "name": "",
          "type": "uint256"
        }
      ],
      "stateMutability": "view",
      "type": "function"
    }
  ],
  "bytecode": "0x6080604052348015600f57600080fd5b5061019c8061001f6000396000f3fe6080604052600436106100295760003560e01c8063661a56111461002e578063ed88c68e14610059575b600080fd5b34801561003a57600080fd5b50610043610063565b60405161005091906100ce565b60405180910390f35b610061610069565b005b60005481565b600034116100ac576040517f08c379a00000000000000000000000000000000000000000000000000000000081526004016100a390610146565b60405180910390fd5b34600081905550565b6000819050919050565b6100c8816100b5565b82525050565b60006020820190506100e360008301846100bf565b92915050565b600082825260208201905092915050565b7f4d7573742073656e6420736f6d65204554480000000000000000000000000000600082015250565b60006101306012836100e9565b915061013b826100fa565b602082019050919050565b6000602082019050818103600083015261015f81610123565b905091905056fea2646970667358221220ed41b185afe84f03edf021d23af007fa5af1cf7cf3f49aa1a5dadb8a5091b53964736f6c634300081e0033",
  "linkReferences": {},
  "deployedLinkReferences": {}
}